:1000000045C0000053C0000051C000004FC00000B8
:100010004DC000004BC0000049C0000047C00000B8
:1000200045C0000043C0000041C000003FC00000C8
:100030003DC000003BC0000039C0000037C00000D8
:1000400058C0000033C0000031C000002FC00000C5
:100050002DC000002BC0000029C0000027C00000F8
:1000600025C0000023C0000021C000001FC0000008
:100070001DC000001BC0000019C0000017C0000018
:1000800015C0000013C0000011C0000011241FBEE5
:10009000CFEFD0E1DEBFCDBF21E0A0E0B1E001C0F5
:1000A0001D92A930B207E1F77AD080C0A9CF992379
:1000B0006CF020E030E0EFE9FFE03197F1F700C0AD
:1000C00000002F5F3F4F82179307ACF70895A99A5E
:1000D00081E090E0ECDFA9980895A89880936200F1
:1000E000F6CF089588E3F9DF8FE0F7DF86E0F5CFFC
:1000F00008951F920F920FB60F9211242F933F93E2
:100100008F939F93AF93BF938091010190910201D0
:10011000A0910301B09104013091000123E0230F6D
:100120002D3720F40196A11DB11D05C026E8230F2F
:100130000296A11DB11D20930001809301019093AF
:100140000201A0930301B0930401809105019091F5
:100150000601A0910701B09108010196A11DB11DF2
:100160008093050190930601A0930701B0930801C5
:10017000BF91AF919F918F913F912F910F900FBEA3
:100180000F901F9018952FB7F8946091010170910E
:10019000020180910301909104012FBF08958FEF18
:1001A0008093610084BBEFDF9DDFFFCFF894FFCF2A
:00000001FF
