S0110000626C7565746F6F74682E737265633D
S113000045C0000060C000005EC000005CC000008D
S11300105AC0000058C0000056C0000054C0000080
S113002052C0000050C000004EC000004CC0000090
S11300304AC0000048C0000046C0000044C00000A0
S113004042C0000040C0000054C000003CC000009A
S11300503AC0000038C0000036C0000034C00000C0
S113006032C0000030C000002EC000002CC00000D0
S11300702AC0000028C0000027C0000024C00000DF
S113008022C0000020C000001EC0000011241FBEBA
S1130090CFEFD0E1DEBFCDBF11E0A0E0B1E0E4E8F6
S11300A0F1E000E00BBF02C007900D92A430B1074D
S11300B0D9F721E0A4E0B1E001C01D92A730B20756
S11300C0E1F74DD05DC09CCF1F920F920FB60F92F7
S11300D011248F939F9380919C0090E0909306014C
S11300E0809305019F918F910F900FBE0F901F90E9
S11300F018951F920F920FB60F9211248F938CB103
S1130100809304018F910F900FBE0F901F9018954C
S11301101BB828E92AB996E09093950010929000B4
S113012087E689B910929B0020939A0090939D00D2
S1130130109298008093990080E88FBF08958FEF04
S113014087BB18BA089580910401813311F481E0CA
S113015088BB80910401803309F418BA0895D8DF6C
S1130160EEDFC0E0D1E0EFDF5D9BCCB98FEF99E625
S113017028E1815090402040E1F700C00000F3CF17
S1070180F894FFCF1D
S1070184323200000F
S9030000FC
