:1000000045C0000060C000005EC000005CC0000091
:100010005AC0000058C0000056C0000054C0000084
:1000200052C0000050C000004EC000004CC0000094
:100030004AC0000048C0000046C0000044C00000A4
:1000400063C1000040C000003EC000003CC0000092
:100050003AC0000038C0000036C0000034C00000C4
:1000600032C0000030C000002EC000002CC00000D4
:100070002AC0000028C0000026C0000024C00000E4
:1000800022C0000020C000001EC0000011241FBEBE
:10009000CFEFD0E1DEBFCDBF11E0A0E0B1E0E6E5FB
:1000A000F4E000E00BBF02C007900D92AC37B1073F
:1000B000D9F721E0ACE7B1E001C01D92A638B20744
:1000C000E1F777D1C6C19CCF8091820190918301E5
:1000D0000897ACF4E0918201F0918301EE0FFF1FCD
:1000E000EC5DFE4F808191818BBB8091820190916C
:1000F00083010196909383018093820125C08091B2
:100100008201909183014997ACF4E0918201F091D2
:100110008301EE0FFF1FE051FF4F808191818BBB68
:100120008091820190918301019690938301809345
:1001300082010AC081E090E090937F0180937E016C
:10014000109283011092820180918201909183012B
:10015000099711F483E083BF089580918201909103
:1001600083018130910591F01CF4892B39F02DC069
:100170008230910591F00397E9F027C080918001CA
:1001800090918101807F82608BBB1FC08091800134
:1001900090918101807F8BBB18C0809180019091EC
:1001A000810182959295907F9827807F9827826021
:1001B0008BBB0BC0809180019091810182959295BB
:1001C000907F9827807F98278BBB809182019091A8
:1001D0008301039754F480918201909183010196E9
:1001E000909383018093820108951092810110926F
:1001F0008001109283011092820108958091820102
:100200009091830181309105D1F01CF4892B39F054
:100210004BC08230910519F10397A1F145C0E091DF
:100220007C01F0917D01319780918401909185014D
:10023000E80FF91F8081807F83608BBB35C0E09120
:100240007C01F0917D01319780918401909185012D
:10025000E80FF91F8081807F81608BBB25C0E09112
:100260007C01F0917D01319780918401909185010D
:10027000E80FF91F808120E1829FC0011124836073
:100280008BBB12C0E0917C01F0917D013197809190
:10029000840190918501E80FF91F808120E1829F00
:1002A000C001112481608BBB8091820190918301F8
:1002B000039754F480918201909183010196909369
:1002C000830180938201089580917C0190917D014A
:1002D000E0918401F0918501E80FF91F8081882366
:1002E00051F080917C0190917D01019690937D0168
:1002F00080937C0104C010927D0110927C011092C9
:1003000083011092820108951F920F920FB60F92EF
:1003100011240BB60F922F933F934F935F936F93DC
:100320007F938F939F93AF93BF93EF93FF9381E05E
:1003300088BB80917E0190917F01892B11F4C4DEEE
:100340000FC08091800190918101892B11F005DF10
:1003500007C080917C0190917D01892B09F04EDFCF
:1003600018BAFF91EF91BF91AF919F918F917F91BB
:100370006F915F914F913F912F910F900BBE0F9016
:100380000FBE0F901F90189520917C0130917D0138
:10039000232BD1F790938101809380017093850185
:1003A0006093840181E090E090937D0180937C01D3
:1003B0000895CF93DF93CDB7DEB7C854D1090FB6F8
:1003C000F894DEBF0FBECDBF84E1E4E3F1E0DE01CF
:1003D000119601900D928A95E1F782E1E8E4F1E04F
:1003E000DE01559601900D928A95E1F783E1EAE5E9
:1003F000F1E0DE01979601900D928A95E1F78FE08A
:10040000EDE6F1E0DE01DA9601900D928A95E1F7D2
:1004100083EF8ABB81E087BB97E093BF87BF789467
:10042000BE016F5F7F4F80E890E0AEDFBE016B5E84
:100430007F4F80EC90E0A8DFBE01695D7F4F84E9CB
:1004400090E0A2DFBE01665C7F4F84ED90E09CDF10
:06045000FFCFF894FFCF7E
:10045600220020008200800002000000C200C000CE
:10046600020000006200600002000000120010009E
:100476000000000032003000320030003200300050
:1004860022002000203230303420436861726163DC
:10049600746572204C43440020202041565220416E
:1004A600546D6567613132384100202054696D65AD
:1004B600722030206F766572666C6F770020202080
:0C04C6002020696E7465727275707400FD
:00000001FF
