S00C0000647573742E7372656358
S113000045C0000058C0000056C0000054C00000A5
S113001052C0000050C000004EC000004CC00000A0
S11300204AC0000048C0000046C0000044C00000B0
S113003042C0000040C000003EC000003CC00000C0
S11300403AC0000038C0000036C0000034C00000D0
S113005032C0000030C000002EC000002CC00000E0
S11300602AC0000028C0000026C0000024C00000F0
S113007022C0000020C000001EC000001CC0000000
S11300801AC0000018C0000016C0000011241FBED2
S1130090CFEFD0E1DEBFCDBF11E0A0E0B1E0ECE6F0
S11300A0F1E000E00BBF02C007900D92AC31B10744
S11300B0D9F74AD059C0A4CF99236CF020E030E09E
S11300C0EFE9FFE03197F1F700C000002F5F3F4FE9
S11300D082179307ACF70895199A81E090E0ECDF5A
S11300E019980895189880936200F6CF0895189A85
S11300F080936200F1CF0895613041F028F06230BE
S113010039F0633039F007C060E805C060EC03C023
S113011064E901C064ED860FE5CF0895CF93DF93C2
S1130120EA01EADF8881882329F02196E0DF8991BA
S11301308111FCCFDF91CF91089588E3D3DF8FE065
S1130140D1DF86E0CFCF08958FEF82B9809361002D
S1130150F4DF40E051E060E080E0E0DF41E151E0C5
S10F016061E080E0DBDFFFCFF894FFCF0C
S113016C77656C636F6D6520746F20726F626F744A
S10F017C00796F75207220766970000015
S9030000FC
