:1000000045C0000060C000005EC000005CC0000091
:100010005AC0000058C0000056C0000054C0000084
:1000200052C0000050C000004EC000004CC0000094
:100030004AC0000048C0000046C0000044C00000A4
:100040008BC0000040C000003EC000003CC000006B
:100050003AC0000038C0000036C0000034C00000C4
:1000600032C0000030C000002EC000002CC00000D4
:100070002AC0000028C0000026C0000024C00000E4
:1000800022C0000020C000001EC0000011241FBEBE
:10009000CFEFD0E1DEBFCDBF11E0A0E0B1E0ECE4F6
:1000A000F2E000E00BBF02C007900D92A830B1074C
:1000B000D9F721E0A8E0B1E001C01D92A131B2075B
:1000C000E1F79CD0C1C09CCF99236CF020E030E0D8
:1000D000EFE9FFE03197F1F700C000002F5F3F4FDD
:1000E00082179307ACF70895199A81E090E0ECDF4E
:1000F00019980895189880936200F6CF0895189A79
:1001000080936200F1CF0895613041F028F06230B1
:1001100039F0633039F007C060E805C060EC03C017
:1001200064E901C064ED860FE5CF0895CF93DF93B6
:10013000EA01EADF8881882329F02196E0DF8991AE
:100140008111FCCFDF91CF91089588E3D3DF8FE059
:10015000D1DF86E0CFCF08951F920F920FB60F9296
:1001600011242F933F938F939F93AF93BF938091CD
:10017000090190910A01A0910B01B0910C013091FD
:10018000080123E0230F2D3720F40196A11DB11D96
:1001900005C026E8230F0296A11DB11D209308017A
:1001A0008093090190930A01A0930B01B0930C0175
:1001B00080910D0190910E01A0910F01B09110015D
:1001C0000196A11DB11D80930D0190930E01A09386
:1001D0000F01B0931001BF91AF919F918F913F910B
:1001E0002F910F900FBE0F901F901895789483B7A2
:1001F000846083BF87B7816087BF0895CF93DF9303
:10020000CDB7DEB727970FB6F894DEBF0FBECDBFD0
:100210008FEF8093610082B9E9DF97DF87E0E0E04C
:10022000F1E0DE01119601900D928A95E1F7AE01A1
:100230004F5F5F4F60E080E079DFAE014F5F5F4F5F
:0C02400061E080E073DFFFCFF894FFCF97
:08024C00796F752E207200008D
:00000001FF
