:1000000045C000004BC0000049C0000047C00000D0
:1000100045C0000043C0000041C000003FC00000D8
:100020003DC000003BC0000039C0000037C00000E8
:1000300035C0000033C0000031C000002FC00000F8
:100040002DC000002BC0000029C0000027C0000008
:1000500025C0000023C0000021C000001FC0000018
:100060001DC000001BC0000019C0000017C0000028
:1000700015C0000013C0000011C000000FC0000038
:100080000DC000000BC0000009C0000011241FBEFD
:10009000CFEFD0E1DEBFCDBF1FD037C0B1CF5D9B6A
:1000A000FECF8CB90895CF93DF93EC01888188232C
:1000B00029F02196F4DF89918111FCCFDF91CF9156
:1000C00008951BB888E18AB986E080939500109264
:1000D000900087E689B90895CF93DF9300D01F92EF
:1000E000CDB7DEB782E390E39A8389831B82E9DF91
:1000F000CE010196D8DF2FEF8BE792E921508040A7
:0E0100009040E1F700C00000F3CFF894FFCF6D
:00000001FF
